:020000040800F2
:1000000000200020D10100081D0200081D02000888
:1000100000000000000000000000000000000000E0
:100020000000000000000000000000001D020008A9
:1000300000000000000000001D0200081D02000872
:100040001D0200081D0200081D0200081D02000814
:100050001D0200081D0200081D0200081D02000804
:100060001D0200081D0200081D0200081D020008F4
:100070001D0200081D0200081D0200081D020008E4
:100080001D0200081D020008000000001D020008FB
:100090001D0200081D0200081D0200081D020008C4
:1000A0001D0200081D0200081D0200081D020008B4
:1000B0001D020008000000001D02000800000000F2
:1000C0005FF808F180B582B000AF78600A1CFB1CB5
:1000D0001A70FB1C1B78002B06D0084B074A51698D
:1000E0007A680A435A6106E0044B044A5269796807
:1000F000C9430A405A61BD4602B080BD00100240AB
:1001000090B583B000AF80239B02181C0121FFF73C
:10011000D9FF80231B03181C0121FFF7D3FF2A4BB3
:10012000C02292001A60284B01221A71264B00222D
:100130009A71254B0022DA71234B00225A71234A0F
:10014000214B101C191C00F021F91F4B01221A60D1
:100150001D4B00221A711C4B0022DA719023DA0524
:10016000194B101C191C00F011F9FB1D00221A700C
:10017000FC1D9023DB05181C012100F0A3F9031CD2
:100180002370FB1D1B78002B0ED0104A80239B0090
:10019000101C191C00F0BAF90C4A80235B00101CDB
:1001A000191C00F0C1F9E3E7084A80239B00101CEA
:1001B000191C00F0B9F9054A80235B00101C191CBA
:1001C00000F0A4F9D4E7C046000000200008004871
:1001D0000C488546002103E00B4B5B58435004312B
:1001E0000A480B4B42189A42F6D30A4A02E000230F
:1001F00013600432084B9A42F9D300F011F8FFF76C
:100200007FFFFEE7002000204405000800000020DA
:10021000000000200000002008000020FEE7000091
:1002200080B500AF1B4B1B4A126801210A431A60BC
:10023000184B184A5168184A0A405A60154B154A1B
:100240001168164A0A401A60124B124A1168144A81
:100250000A401A600F4B0F4A5168124A0A405A600E
:100260000C4B0C4AD26A0F218A43DA62094B094AC5
:10027000116B0D4A0A401A63064B064A526B012164
:100280008A435A63034B00229A6000F00FF8BD4680
:1002900080BDC046001002400CB8FFF8FFFFF6FE1C
:1002A000FFFFFBFFFFFFC0FFACFEFFFF80B582B08A
:1002B00000AF00237B6000233B60314B304A126863
:1002C000802149020A431A602D4B1A6880239B0241
:1002D00013403B607B6801337B603B68002B04D19B
:1002E0007A68A023DB019A42EED1254B1A6880235D
:1002F0009B02134002D001233B6001E000233B60DE
:100300003B68012B38D11F4B11221A601C4B1C4A31
:1003100052685A601A4B1A4A52685A60184B184A67
:100320005168194A0A405A60154B154A526888218B
:1003300049030A435A60124B114A1268802149044A
:100340000A431A60C0460E4B1A6880239B04134070
:10035000F9D00B4B0A4A526803218A435A60084B72
:10036000074A526802210A435A60C046044B5A6841
:100370000C231340082BF9D1BD4602B080BDC04606
:100380000010024000200240FFFFC0FF80B586B091
:1003900000AF7860396000237B6100233B6100235C
:1003A000FB6000237B6185E07B690122101C984083
:1003B000031C3B613B681B683A691340FB60FA68A9
:1003C0003B699A4273D13B681B79012B03D03B6890
:1003D0001B79022B38D17B689B687A695200032114
:1003E000081C9040021CD2431A407B689A607B68CC
:1003F0009A683B685B79191C7B695B00081C984014
:10040000031C1A437B689A607B685B689BB27A69BD
:1004100092B20121081C9040021C92B2D24392B2C7
:1004200013409AB27B689A807B685B689AB23B689B
:100430009B79191C7B699BB2081C9840031C9BB2DA
:1004400013439AB27B689A807B681B687A69520072
:100450000321081C9040021CD2431A407B681A609A
:100460007B681A683B681B79191C7B695B00081C58
:100470009840031C1A437B681A607B68DB687A69C2
:1004800092B252000321081C9040021CD2431A4031
:100490007B68DA607B68DA683B68DB79191C7B690A
:1004A0005B00081C9840031C1A437B68DA607B6978
:1004B00001337B617B690F2B00D875E7BD4606B021
:1004C00080BDC04680B584B000AF78600A1CBB1CFC
:1004D0001A803B1C0F3300221A707B681B699BB289
:1004E000BA1C128813409BB2002B04D03B1C0F3364
:1004F00001221A7003E03B1C0F3300221A703B1CD0
:100500000F331B78181CBD4604B080BD80B582B087
:1005100000AF78600A1CBB1C1A80BB1C1A887B6861
:100520009A61BD4602B080BD80B582B000AF7860F0
:100530000A1CBB1C1A807B68BA1C12881A85BD462F
:0405400002B080BDC8
:0400000508000000EF
:00000001FF
